:020000040800F2
:1000000000080020290200084F1A0008891900087A
:100010004D1A0008C5050008A11D000800000000D9
:10002000000000000000000000000000531A00085B
:10003000C705000800000000511A0008551A000802
:10004000430200084302000843020008430200087C
:10005000430200084302000843020008430200086C
:10006000430200084302000843020008430200085C
:10007000430200084302000843020008430200084C
:10008000430200084302000843020008430200083C
:10009000430200084302000843020008430200082C
:1000A000430200084302000843020008430200081C
:1000B000430200084302000843020008430200080C
:1000C00043020008430200084302000843020008FC
:1000D00043020008891D000843020008951D00081E
:1000E00043020008430200084302000843020008DC
:1000F00043020008430200084302000843020008CC
:1001000043020008430200084302000843020008BB
:1001100043020008430200084302000843020008AB
:10012000430200084302000843020008430200089B
:10013000430200084302000843020008430200088B
:10014000430200084302000843020008430200087B
:10015000430200084302000843020008430200086B
:10016000430200084302000843020008430200085B
:100170004302000843020008430200080000000098
:10018000430200084302000800F002F800F03CF8C7
:100190000AA090E8000C82448344AAF10107DA45E2
:1001A00001D100F031F8AFF2090EBAE80F0013F0F8
:1001B000010F18BFFB1A43F0010318478C1C000005
:1001C000AC1C0000103A24BF78C878C1FAD8520796
:1001D00024BF30C830C144BF04680C6070470000C1
:1001E0000023002400250026103A28BF78C1FBD840
:1001F000520728BF30C148BF0B6070471FB501F0E0
:1002000011FE1FBD10B510BD00F0CFF81146FFF76D
:10021000F5FF01F0D6FD00F0EDF803B4FFF7F2FFB3
:1002200003BC00F0F5F80000094880470948004782
:10023000FEE7FEE7FEE7FEE7FEE7FEE7FEE7FEE796
:10024000FEE7FEE704480549054A064B70470000F3
:10025000D51A0008890100080002002000080020CB
:10026000000400200004002053EA020C00F0698022
:100270002DE9F04B4FF00006002B1FBFB3FA83F5BA
:1002800003FA05F424FA05F65E4012BF1643B2FAEB
:1002900082F502FA05F4C5F120051EBF22FA05FC1D
:1002A00044EA0C04203556EA044C4FEA144418BFC3
:1002B000641C4FF000084FF00009904271EB030CF2
:1002C00039D3002919BFB1FA81F701FA07F6B0FA5C
:1002D00080F700FA07F6C7F120071EBF20FA07FCD7
:1002E00046EA0C062037B6FBF4FCA7EB0507103FE7
:1002F00007F01F0BCBF120060CFA0BFB2CFA06F6CD
:1003000044BFB3460026202FA4BF5E464FF0000B2B
:100310005BEA060C08BF4FF0010B19EB0B09ABFBB6
:10032000027C48EB0608C01B06FB02CC0BFB03CC8F
:1003300071EB0C01C1E70B46024641464846BDE859
:10034000F08B13B54FF000004FF00001AFF30080C9
:10035000BDE81C4070474FF0000200B513469446BC
:100360009646203922BFA0E80C50A0E80C50B1F10D
:100370002001BFF4F7AF090728BFA0E80C5048BF21
:100380000CC05DF804EB890028BF40F8042B08BFBF
:10039000704748BF20F8022B11F0804F18BF00F8BB
:1003A000012B7047704770477047754600F02CF876
:1003B000AE4605006946534620F00700854618B052
:1003C00020B5FFF73FFFBDE820404FF000064FF09B
:1003D00000074FF000084FF0000B21F00701AC467A
:1003E000ACE8C009ACE8C009ACE8C009ACE8C00999
:1003F0008D46704710B50446AFF300802046BDE837
:100400001040FFF70ABF000000487047A00100201D
:1004100001491820ABBEFEE726000200704700002D
:10042000D0F8021005480022B1F5C03FC0E9011222
:1004300001D901F0E7BC01F0D5BC00007401002037
:1004400010B501F0CFFC00F051F800F033F8BDE832
:10045000104000F073B800002DE9F041144C06463E
:1004600012482060B77800F003FB00250EE07019F9
:10047000A168C278206800230144184600F0BAFA47
:100480008046A068401C6D1CEDB2A060BD42EED35A
:1004900000F0A6FAB8F1000F03D0BDE8F04101F07A
:1004A000B1BCBDE8F04101F09DBC00000080000837
:1004B0007401002010B5084C0849A068001F82088C
:1004C000074800F08FF90749074B4860A2681A44B3
:1004D000D2F8FC2F8A6010BD740100200080000853
:1004E00000000020080000200070000810B500F097
:1004F00009FDBDE8104000F00DBA000030B587B02E
:1005000002250320CDE9025000240120CDE900405E
:1005100000F0AEFA05A96846049500F015FA054604
:1005200000F05EFA044884601DB101F06BFC07B076
:1005300030BD01F057FCFAE7740100200249086859
:1005400080F3088848680047008000081A49194865
:100550001A4EA1F1C8044FF0FF3508601648C821B3
:10056000C838FFF7F8FE14492B460122C839144851
:1005700001F04EF9227832702B46611C104801F0D0
:1005800047F96078012808D0022809D004280CD047
:100590000528E3D1FFF754FFE0E7FFF7AFFFDDE702
:1005A0000548C838FFF73CFFD8E70348C838FFF7CD
:1005B00053FFD3E7008000087401002008000020EA
:1005C00024000020FEE7704772B6FEE7002229B142
:1005D00001291AD002291BD04FF440720E490B6832
:1005E00023F440730B600B6813430B600A6822F01E
:1005F000F8020A600A68022303EBC00002430A60A3
:10060000086840F48030086070474FF48072E5E776
:100610004FF40072E2E70000103C0240134801680A
:1006200089050FD5016821F400710160016841F46A
:1006300000610160016821F400610160016841F41A
:1006400000710160016849050FD5016821F48061DE
:100650000160016841F480510160016821F480511A
:100660000160016841F4806101607047003C024014
:1006700008490A6822F440720A600A6842F00402DB
:100680000A600A684FF4803343EA002002430A609C
:1006900070470000103C0240064A136823F4407380
:1006A000136013681360136843F001031360017053
:1006B00070470000103C0240094910B50C6824F452
:1006C00040740C600C6844F440740C600C6844F096
:1006D00001040C600260BFF36F8F436010BD000027
:1006E000103C0240074A136823F4407313601368F8
:1006F00043F480731360136843F0010313600180B7
:1007000070470000103C0240074A136823F440730E
:100710001360136843F400731360136843F001031C
:100720001360016070470000103C024017490868E0
:10073000C206174805D5C26942F01002C2611022F4
:100740000A600A68920605D5C26942F00802C261D1
:1007500020220A600A68520605D5C26942F00402E6
:10076000C26140220A600A68120605D5C26942F0D9
:100770000202C26180220A600A68920705D5C26936
:1007800042F02002C2610220086070470C3C024027
:100790008001002070B5114904460020C86100F0B6
:1007A00075FA06460E4D09E0601C07D024B100F032
:1007B0006DFA801BA04201D9032070BD2868C003D8
:1007C000F2D42868C00701D001202860286810F002
:1007D000F200F2D0FFF7AAFF012070BD80010020D7
:1007E0000C3C024030B50223437103689C6844F01E
:1007F00001049C60002304E0056851F823402C604C
:100800005B1C9342F8D301680968012242710846D3
:1008100030BD10B5040002D0607910B106E00120AF
:1008200010BD00202071204600F004F80120607106
:10083000002010BD08B500680649884208D1064866
:10084000016841F480510160006800F4805000901C
:1008500008BD000000300240303802402DE9F04170
:100860000446876D00F012FA064694F8350000251C
:10087000022806D08020606584F834500120BDE84D
:10088000F0812068016821F016010160206841694B
:1008900021F080014161206C08B9A06C20B1206872
:1008A000016821F0080101602068016821F0010160
:1008B00001600CE000F0EAF9801B052807D9202030
:1008C0006065032084F8350084F83450D7E7206849
:1008D0000068C007EED194F85C103F208840B860F3
:1008E000012084F8350084F834500020C7E790F8E0
:1008F0003510022903D08021416501207047052170
:1009000080F835100068016821F0010101600020C5
:10091000704700000B4A10B54FF0FF301060002107
:100920001160121D10601160064A103A10601160CB
:10093000121D10601160121D1060116000F0EEF9C0
:10094000002010BD203802402DE9F047044622481F
:100950000F46017E01290AD00121804601764CF222
:1009600050394846FFF716FF020003D02FE002205F
:10097000BDE8F0874FF0FF3038602068174D012840
:1009800001D0A6681CE0207C6168FFF771FE484634
:10099000FFF700FF0246286820F00400286014E0FA
:1009A000217C3046FFF712FE4846FFF7F3FE0200B7
:1009B000286820F0FA00286001D03E6005E0761C2F
:1009C000D4E902100844B042EAD8FFF727FE00211C
:1009D00088F818101046CBE780010020103C024038
:1009E0000348016841F000410160002070470000A9
:1009F000103C02402DE9F0471B4E05461446307E60
:100A00001F468946012808D0012030764CF2503824
:100A10004046FFF7BFFE18B114E00220BDE8F087A2
:100A20009DB1012D16D0022D19D022463B464846D5
:100A3000FFF742FE4046FFF7ADFE0C490A6822F080
:100A400001020A6000213176E8E7E1B24846FFF78B
:100A500023FEEFE7A1B24846FFF744FEEAE721464E
:100A60004846FFF751FEE5E780010020103C0240B8
:100A7000074900200A68002A09DA054A054B0C3AA2
:100A80001360054B13600968002900DA01207047E4
:100A9000103C024023016745AB89EFCD2DE9F84FAB
:100AA000DFF8BCA10022012503264FF00F090AF14F
:100AB000040BAAF1040E00BF0B6805FA02F42340F0
:100AC000A34270D10F7907F00307012F01D0022F45
:100AD00016D187684FEA420806FA08FC27EA0C0795
:100AE000D1F80CC00CFA08FC4CEA070CC0F808C09E
:100AF0004768A7430C79C4F3001494403C43446016
:100B00000C79E443A4070AD0C4684FEA420C06FA01
:100B10000CF7BC438F6807FA0CF72743C7600C79C2
:100B200004F00304022C12D1D40800EB840CDCF88E
:100B300020405707FF0E09FA07F824EA0804D1F805
:100B4000108008FA07F848EA0408CCF82080046806
:100B50004FEA420C06FA0CF7BC430F7907F0030783
:100B600007FA0CF7274307604C6814F4403F70D035
:100B70003C4C276847F480472760246822F003072D
:100B800004F480440094384C07EB040CDCF808486B
:100B900097074FEA177809FA08F7BC43334FB84272
:100BA00002D1002724E054E0314FB84201D101279F
:100BB0001EE0304FB84201D1022719E02E4FB84253
:100BC00001D1032714E02D4FB84201D104270FE0D3
:100BD0002B4FB84201D105270AE02A4FB84201D174
:100BE000062705E0284FB84201D1072700E0082773
:100BF00007FA08F72743CCF80878DAF80040574698
:100C0000D1F804C09C435FEACC2C00D51C433C6067
:100C1000DBF800405F46D1F804C09C435FEA8C2CAF
:100C200000D51C433C60DEF800407746D1F804C094
:100C30009C435FEA8C3C00D51C433C60084F083F56
:100C40003C68D1F804C09C435FEACC3C00D51C430F
:100C50003C60521C102AFFF42FAFBDE8F88F000053
:100C6000083C01404438024000300140000002408E
:100C70000004024000080240000C02400010024044
:100C80000014024000180240001C02400148806825
:100C90007047000014000020024881680278114467
:100CA00081607047140000200B4810B5016841F4C2
:100CB00000710160016841F480610160016841F4E4
:100CC00080710160032000F071F80F2000F006F839
:100CD00000F026F8002010BD003C024070B50D4D1C
:100CE00004464FF47A712878B1FBF0F00A4909689C
:100CF000B1FBF0F000F0A8FB48B9102C07D200229D
:100D00002146501E00F032F800206C6070BD0120BA
:100D100070BD00001400002020000020704700007B
:100D20000A4808B5016841F480410160006800F498
:100D3000804000900548001F016841F0805101602B
:100D4000006800F08050009008BD00004438024068
:100D5000002809DB00F01F020121914040098000BA
:100D600000F1E020C0F8001170470000F0B40E4B15
:100D70001B680C46C3F30223C3F10705042D00D9F9
:100D80000425191D072901D2002300E0DB1E0126DE
:100D900006FA05F1491E214099409E40761E1640F4
:100DA0003143F0BC00F0FDBF0CED00E0064900F05F
:100DB000070208684FF6FF03184040EA0220034A82
:100DC00010430860704700000CED00E00000FA05D9
:100DD0002DE9F0470E46050065D0DFF81481D8F8FC
:100DE0000000F7B200F00700B04207D288F80070A8
:100DF000D8F8000000F00700B04254D128683D4CFC
:100E0000810712D5400703D5206840F4E0502060E8
:100E10002878000703D5206840F4604020602068EF
:100E2000A96820F0F000084320602878C0072DD082
:100E3000304968680839012812D0022813D00328E5
:100E400011D00968890700292DDA216821F00301F2
:100E500001432160FFF71AFF814641F2883A0EE014
:100E600009688903EFE709688901ECE7FFF70EFFDE
:100E7000A0EB0901514502D90320BDE8F0872068A5
:100E8000696800F00C00B0EB810FEFD1D8F80010CA
:100E9000404601F00701B14207D90770006800F031
:100EA0000700B04201D00120E7E72878400705D5C8
:100EB0002068E96820F4E0500843206028780007A3
:100EC00006D52068296920F4604040EAC10020600E
:100ED00000F0D2F82168084AC1F30311515CC84000
:100EE0000649086006480068FFF7F8FE0020C4E7DE
:100EF000003C0240083802402E1E0008200000205E
:100F0000180000202DE9F041FFF7C0FE444C0546D3
:100F1000206840F00100206005E000BFFFF7B6FE4A
:100F2000401B022847D820688007F7D5206840F08A
:100F300080002060FFF7AAFE0546394E00200836E3
:100F4000306041F2883704E0FFF7A0FE401BB84252
:100F500031D8306810F00C0FF6D1FFF797FE054638
:100F6000206820F45020206005E000BFFFF78EFECF
:100F7000401B64281FD820688003F7D4FFF786FE43
:100F80000546206820F08070206004E0FFF77EFEB8
:100F9000401B02280FD820688001F7D4FFF776FEA7
:100FA0000546206820F08060206007E0FFF76EFEB5
:100FB000401B022802D90320BDE8F081206800010F
:100FC000F4D417491748091D08601549164884319B
:100FD000086013480C30016821F4F8510160016881
:100FE00021F400510160016841F41F0101600168B2
:100FF00041F4001101600A487430016821F00101D8
:101000000160016841F0807101600949074808608A
:1010100008480068FFF762FE0028CDD00120CBE72A
:101020000038024010300004003000200024F4009A
:1010300020000020180000200448054900680968C5
:10104000044AC1F38221515CC8407047200000204F
:10105000083802403E1E0008044805490068096837
:10106000044AC1F34231515CC8407047200000205F
:10107000083802403E1E0008154810B5006810F000
:101080000C02144813D01449042A0FD0082A0ED198
:101090000F4C241F2268236802F03F025B0207D531
:1010A0002068C0F38810A0FB010106E0084610BDCF
:1010B0002168C1F38811A1FB00010023FFF7D4F8D8
:1010C0002168C1F30141491C4900B0FBF1F010BD9A
:1010D000083802400024F40040787D012DE9F84FE3
:1010E00004006ED02078DFF84C93C007A9F1040506
:1010F0004AD009F104000168C1F38101012908D037
:101100000068C0F3810002280AD1D9F8000040022B
:1011100006D52868800337D560680028E1D033E021
:101120006068B0F5803F10D0B0F5A02F286810D0CF
:1011300020F480302860286820F4802028606068CF
:10114000A8B1FFF7A3FD06460DE0286840F4803003
:10115000F4E740F480202860F7E700BFFFF796FD32
:10116000801B642873D828688003F7D50CE0FFF74C
:101170008DFD064605E000BFFFF788FD801B642853
:10118000F0D828688003F7D42078DFF8AC82800795
:101190004FF0000A3ED5A748001D016811F00C0F62
:1011A00008D00068C0F3810002280BD1D9F80000F4
:1011B000400207D42868800716D5E068012800D1CE
:1011C00012E033E1E068B8B10120C8F80000FFF791
:1011D0005DFD064605E000BFFFF758FD801B0228B5
:1011E000C0D828688007F7D52868216920F0F80062
:1011F00040EAC10028600DE0C8F800A0FFF746FDF6
:10120000064604E0FFF742FD801B02281FD828682D
:101210008007F7D42078000722D5864F8748616978
:10122000703771B101210160FFF730FD064604E01F
:10123000FFF72CFD801B022809D838688007F7D5F6
:101240000EE0C0F800A0FFF721FD064605E082E0B1
:10125000FFF71CFD801B02287DD838688007F7D473
:101260002078400768D5DFF8CCB100270BF13C0BA4
:10127000DBF80000C0000BD4DBF8001041F0805117
:10128000CBF80010DBF80000012700F08050009040
:101290006B4E3068C00510D4306840F48070306008
:1012A000FFF7F4FC009005E0FFF7F0FC0099401A0E
:1012B000022850D83068C005F6D55E4EA0686C365E
:1012C00001280FD00528306810D020F001003060D0
:1012D000306820F004003060A068B8B1FFF7D6FC99
:1012E00000900FE0306840F00100F4E740F00400A7
:1012F0003060F7E7FFF7CAFC0099411A41F28830E5
:10130000814266D830688007F4D50EE0FFF7BEFC56
:10131000009007E0FFF7BAFC0099411A41F28830CB
:10132000814256D830688007F4D42FB1DBF8001022
:1013300021F08051CBF80010A069C8B33D49091DC8
:101340000968C1F3810102294AD00228504607D01A
:10135000C8F8600000E03CE0FFF798FC04463BE082
:101360004746C8F86000FFF791FC064605E000BF5D
:10137000FFF78CFC801B02282BD828688001F7D44B
:10138000D4E907010843A16A2E4A490802EB01414A
:10139000626A41EA8211084394F82C1040EA016124
:1013A000C9F8001001203866FFF770FC044606E01B
:1013B0003EE000BFFFF76AFC001B022809D828683E
:1013C0008001F7D534E000BFFFF760FC001B022866
:1013D00002D90320BDE8F88F28688001F4D427E003
:1013E0000128F7D0D9F80000E26900F480019142A9
:1013F0001CD1226A00F03F01914217D147F6C0711B
:10140000626A0140B1EB821F10D1A26A4FF0FF3334
:1014100000F4403103EB5202B1EB024F06D194F8D5
:101420002C1000F07060B0EB016F01D00120D1E70B
:101430000020CFE70438024000004742800E4742B8
:10144000007000400000FFFF10B5401EB0F1807F2B
:1014500001D3012010BD4FF0E02460610F2160171F
:1014600000F09FFC0020A06107202061002010BD3B
:1014700070477047F8B5016804460868CA684B6948
:1014800010F00F0F4FF0000559D003F0010602F4E1
:101490009077374365D0C10705D0D10503D5216CBE
:1014A00041F001012164410705D5D90703D0216C22
:1014B00041F002012164810705D5D90703D0216CD1
:1014C00041F004012164010707D502F020013143F6
:1014D00003D0216C41F008012164216C00293AD02D
:1014E000800604D5900602D5204600F02AFB20682D
:1014F0004069216CC0F38010090700D460B3204616
:1015000000F0F8FA20684069400621D520681430C0
:1015100050E8001F21F0400140E80012002AF5D1F8
:10152000A06BA8B16C490165A06BFFF7E0F900283A
:1015300011D0A06B016D01B0BDE8F04008478306F3
:101540000FD593060DD52046BDE8F84000F0F9BA56
:101550002046FFF78EFFF8BD2046FFF78AFF25647F
:10156000F8BD266B2023012E79D1C60677D5D60685
:1015700075D50868486800904869400640D5A16B59
:10158000086840680004000CEAD0A28D8242E7D9C6
:10159000E085C869B0F5807F2DD020680C3050E818
:1015A000001F21F4807140E80012002AF5D1206864
:1015B000143050E8001F21F0010140E80012002A19
:1015C000F5D12068143050E8001F21F0400140E8B8
:1015D0000012002AF5D184F83E30256320680C30D3
:1015E00050E8001F21F0100140E80012002AF5D158
:1015F000A06BFFF733F9A08DE18D401A81B229E08D
:10160000A08DE18D401A81B2E08D0028A8D000297C
:10161000A6D020680C3050E8002F22F4907240E8E9
:101620000026002EF5D12068143050E8002F22F05B
:10163000010240E80026002EF5D184F83E302563F3
:1016400020680C3050E8002F22F0100240E8002300
:10165000002BF5D12046FFF70BFFF8BDFFE705068D
:101660002BD5150629D594F83D002128F5D1A06881
:10167000B0F5805F01D12069B0B1206A411C2162C0
:10168000216800784860E08C401E0004000CE08473
:10169000E3D12068C16821F08001C1602068C16881
:1016A00041F04001C160D8E7206A0088C0F308001B
:1016B0004860206A801C2062E5E74006CDD55006D0
:1016C000CBD5CA68204622F04002CA6084F83D307B
:1016D00000F059F9C1E70000E51A000870B50400F0
:1016E00004D094F83D00002510B106E0012070BD43
:1016F00084F83C50204600F023F8242084F83D0074
:101700002068C16821F40051C160204600F07AFAD7
:101710002068016921F4904101612068416921F04C
:101720002A0141612068C16841F40051C16025640B
:10173000202084F83D0084F83E00002070BD0000A9
:1017400070B586B0044614216846FEF704FE2B4EA1
:10175000226800212A48022303240725B24222D10D
:10176000274A1432166846F010061660126802F016
:1017700010020592026842F001020260006802AAAB
:1017800000F00100059082E832006002CDE900031C
:1017900069461C48FFF782F9002211462520FFF711
:1017A000E5FA252025E0184EB24224D1144A103221
:1017B000166846F480261660126802F480220592AC
:1017C000026842F002020260006802AA00F0020011
:1017D000059082E832004FF44060CDE9000369468D
:1017E0000A48FFF75BF9002211462720FFF7BEFAEF
:1017F0002720FFF7ADFA06B070BD000000100140D1
:10180000303802400000024000480040000402401E
:101810002DE9F84F044690F83E009A4616460D46CC
:10182000202853D1FDB1F6B194F83C0001284DD0E9
:10183000012084F83C0000272764222084F83E0021
:101840002763FFF723FAA6858146E685A0684FF453
:101850008058404501D1206940B12E465FF0000517
:1018600084F83C7027E00120BDE8F88F0026F7E7F8
:101870004B46002220212046CDF800A000F048FA77
:1018800008B10320F0E726B1A06840451BD038B16D
:1018900008E020684068C0F3080025F8020B07E064
:1018A000206980B12068406800F07F0006F8010BD5
:1018B000E08D401EE085E08D0028D9D1202084F8FD
:1018C0003E000020D0E720684068EFE70220CBE729
:1018D000704700002DE9F843044690F83D001F468C
:1018E00016460D4620284CD1C5B1BEB194F83C0037
:1018F000012846D0012084F83C004FF00008C4F8CD
:101900004080212084F83D00FFF7C0F9A68481467D
:10191000E684A068B0F5805F03D004E00120BDE854
:10192000F883206928B12E465FF0000584F83C80DA
:101930000EE00026FAE78021204600F0E9F9A0B980
:10194000AEB116F8010B21684860E08C401EE084BF
:10195000E08C4B464FF0000200970028EBD14FF08F
:101960004001204600F0D4F930B10320D7E735F824
:10197000020BC0F30800E6E7202084F83D000020B9
:10198000CDE70220CBE77047FEE70000074910B51E
:10199000054808600846FEF73CFF002803D0BDE874
:1019A0001040FEF711BE10BD0030024000000020C4
:1019B000094808B5016841F002010160016801F0C1
:1019C00002010091016841F001010160006800F02E
:1019D0000100009008BD0000303802400C4810B5EE
:1019E0000A4901604FF4E1314160002181600C221D
:1019F000C160C0E904128161C161FFF76FFE002878
:101A000003D0BDE81040FEF7DFBD10BD001001405F
:101A1000240000200C4810B50A4901604FF4E13160
:101A20004160002181600C22C160C0E90412816123
:101A3000C161FFF753FE002803D0BDE81040FEF758
:101A4000C3BD10BD0048004068000020FEE7FEE76F
:101A500070477047FFF720B910B592B03021684643
:101A6000FEF779FC14210CA8FEF775FC174800243A
:101A7000016841F080510160006800F080501190D1
:101A80001348016841F4804101600068069400F445
:101A900080401190022000900120039010200490BB
:101AA0006846FFF71BFB08B172B6FEE70F20CDE9D1
:101AB0000C040E940F9400210CA81094FFF788F9E1
:101AC000002801D072B6FEE712B010BD40380240C7
:101AD000007000400248016841F4700101607047E5
:101AE00088ED00E010B5806B0021C185C184FFF74F
:101AF000C0FC10BD01680C3151E8002F22F4907237
:101B000041E80023002BF5D10168143151E8002F82
:101B100022F0010241E80023002BF5D1016B0129DD
:101B200009D101680C3151E8002F22F0100241E880
:101B30000023002BF5D1202180F83E100021016305
:101B4000704708B590F83E10222901D0022008BD48
:101B500082684FF480539A4201D1016921B1816AB0
:101B60009A421BD04AB10AE00268816A5268C2F305
:101B700008020A80816A891C08E0026972B1026861
:101B8000526802F07F020A70816A491C8162C18D2D
:101B9000491E0904090CC18503D019E00268526886
:101BA000F1E70168CA6822F02002CA600168CA68C9
:101BB00022F48072CA6001684A6922F001024A6117
:101BC000202180F83E10016B012903D0FFF780FE31
:101BD000002008BD0021016301680C3151E8002F8D
:101BE00022F0100241E80023002BF5D101680A68B9
:101BF000D20602D50A6849680091818DFFF738FC4A
:101C0000E6E7000070B5044600680169E26821F467
:101C10004051114301612169A068E269084361698B
:101C2000114308432168CA6849F20C639A4302438E
:101C3000CA6020684169A26921F440711143416181
:101C400031492068884202D03049884202D1FFF7EA
:101C500003FA01E0FFF7F0F9E26900231921642596
:101C60003226B2F5004F626828D0A0FB0101930F25
:101C70009200FEF7F9FA0146B0FBF5F06FF018029A
:101C8000504301EB800006EB0010B0FBF5F000F0D4
:101C9000F002B1FBF5F002EB0012B1FBF5F06FF0D2
:101CA0001803584301EB800006EB0010B0FBF5F081
:101CB00000F00F0021681044886070BDA0FB010196
:101CC00092185B41FEF7D0FA0146B0FBF5F0020135
:101CD000B1FBF5F06FF01803584301EB800006EB01
:101CE000C000B0FBF5F000F0F80002EB4002B1FBE1
:101CF000F5F0584301EB800006EBC000B0FBF5F0B7
:101D000000F00700D6E70000001001400014014079
:101D10002DE9F041984617460E460446069D27E0F9
:101D2000681C25D02DB1FEF7B1FFA0EB0800A8423A
:101D30001ED920680C3050E8001F21F4D07140E813
:101D40000012002AF5D12068143050E8001F21F05D
:101D5000010140E80012002AF5D1202084F83D005E
:101D600084F83E00002084F83C000320BDE8F081A8
:101D70002068006836EA000004D00020B842CFD0C6
:101D80000020F3E70120F9E70148FFF773BB0000EB
:101D9000240000200148FFF76DBB00006800002010
:101DA000FEE70907090E002804DB00F1E02080F8B7
:101DB0000014704700F00F0000F1E02080F8141DBF
:101DC000704710B5FEF770FFFFF746FEFFF7F0FD16
:101DD000FFF7DCFDFFF702FEFFF71CFEFEF7B6FB88
:101DE000002010BD08B505A04FF0FF33006800903B
:101DF000022269460248FFF76DFD08BD011100008F
:101E00002400002008B505A04FF0FF3300680090C3
:101E1000022269460248FFF75DFD08BD012200006D
:101E2000240000204FF04070E1EE100A70470000DF
:101E3000000000000000010203040607080900007A
:101E40000000010203040000681E000800000020DA
:101E500024000000C40100088C1E0008240000209B
:101E6000DC070000E00100080000000000000000A6
:101E70000000000000000000000000000100000061
:0C1E800010000000000000000024F4002E
:040000050800018965
:00000001FF
